{
  "contractName": "Payment",
  "abi": [
    {
      "inputs": [],
      "stateMutability": "nonpayable",
      "type": "constructor"
    },
    {
      "anonymous": false,
      "inputs": [
        {
          "indexed": false,
          "internalType": "address",
          "name": "addr",
          "type": "address"
        },
        {
          "indexed": false,
          "internalType": "string",
          "name": "trade_id",
          "type": "string"
        },
        {
          "indexed": false,
          "internalType": "string",
          "name": "order_no",
          "type": "string"
        },
        {
          "indexed": false,
          "internalType": "uint256",
          "name": "date",
          "type": "uint256"
        }
      ],
      "name": "Notify",
      "type": "event"
    },
    {
      "inputs": [
        {
          "internalType": "string",
          "name": "id",
          "type": "string"
        },
        {
          "internalType": "string",
          "name": "order_no",
          "type": "string"
        },
        {
          "internalType": "uint256",
          "name": "value",
          "type": "uint256"
        }
      ],
      "name": "pay",
      "outputs": [],
      "stateMutability": "payable",
      "type": "function"
    },
    {
      "inputs": [
        {
          "internalType": "uint256",
          "name": "amount",
          "type": "uint256"
        }
      ],
      "name": "withdraw",
      "outputs": [],
      "stateMutability": "payable",
      "type": "function"
    },
    {
      "inputs": [
        {
          "internalType": "address",
          "name": "buyer",
          "type": "address"
        }
      ],
      "name": "tradesOf",
      "outputs": [
        {
          "internalType": "uint256",
          "name": "",
          "type": "uint256"
        }
      ],
      "stateMutability": "view",
      "type": "function"
    },
    {
      "inputs": [
        {
          "internalType": "address",
          "name": "buyer",
          "type": "address"
        },
        {
          "internalType": "uint256",
          "name": "index",
          "type": "uint256"
        }
      ],
      "name": "tradesOfAt",
      "outputs": [
        {
          "internalType": "string",
          "name": "",
          "type": "string"
        },
        {
          "internalType": "string",
          "name": "",
          "type": "string"
        },
        {
          "internalType": "uint256",
          "name": "amount",
          "type": "uint256"
        },
        {
          "internalType": "uint256",
          "name": "date",
          "type": "uint256"
        }
      ],
      "stateMutability": "view",
      "type": "function"
    },
    {
      "inputs": [
        {
          "internalType": "string",
          "name": "order_no",
          "type": "string"
        }
      ],
      "name": "refund",
      "outputs": [],
      "stateMutability": "payable",
      "type": "function"
    },
    {
      "inputs": [
        {
          "internalType": "string",
          "name": "order_no",
          "type": "string"
        }
      ],
      "name": "checkPay",
      "outputs": [
        {
          "internalType": "bool",
          "name": "",
          "type": "bool"
        }
      ],
      "stateMutability": "view",
      "type": "function"
    }
  ],
  "bytecode": "0x608060405234801561001057600080fd5b50336000806101000a81548173ffffffffffffffffffffffffffffffffffffffff021916908373ffffffffffffffffffffffffffffffffffffffff160217905550611151806100606000396000f3fe6080604052600436106100555760003560e01c80632e1a7d4d1461005a57806331cd7e4b146100765780636c081982146100b6578063afe92d7e146100f3578063f621217e14610130578063fe5f2e881461014c575b600080fd5b610074600480360381019061006f9190610bd6565b610168565b005b34801561008257600080fd5b5061009d60048036038101906100989190610ac2565b610260565b6040516100ad9493929190610d88565b60405180910390f35b3480156100c257600080fd5b506100dd60048036038101906100d89190610a95565b6104c0565b6040516100ea9190610e3b565b60405180910390f35b3480156100ff57600080fd5b5061011a60048036038101906101159190610b02565b61050c565b6040516101279190610d6d565b60405180910390f35b61014a60048036038101906101459190610b4b565b610586565b005b61016660048036038101906101619190610b02565b610767565b005b60008054906101000a900473ffffffffffffffffffffffffffffffffffffffff1673ffffffffffffffffffffffffffffffffffffffff163373ffffffffffffffffffffffffffffffffffffffff16146101f6576040517f08c379a00000000000000000000000000000000000000000000000000000000081526004016101ed90610dfb565b60405180910390fd5b60008054906101000a900473ffffffffffffffffffffffffffffffffffffffff1673ffffffffffffffffffffffffffffffffffffffff166108fc829081150290604051600060405180830381858888f1935050505015801561025c573d6000803e3d6000fd5b5050565b6060806000806000600160008873ffffffffffffffffffffffffffffffffffffffff1673ffffffffffffffffffffffffffffffffffffffff168152602001908152602001600020805480602002602001604051908101604052809291908181526020016000905b8282101561043157838290600052602060002090600402016040518060800160405290816000820180546102fa90610f5d565b80601f016020809104026020016040519081016040528092919081815260200182805461032690610f5d565b80156103735780601f1061034857610100808354040283529160200191610373565b820191906000526020600020905b81548152906001019060200180831161035657829003601f168201915b5050505050815260200160018201805461038c90610f5d565b80601f01602080910402602001604051908101604052809291908181526020018280546103b890610f5d565b80156104055780601f106103da57610100808354040283529160200191610405565b820191906000526020600020905b8154815290600101906020018083116103e857829003601f168201915b5050505050815260200160028201548152602001600382015481525050815260200190600101906102c7565b5050505090508581511161047a576040517f08c379a000000000000000000000000000000000000000000000000000000000815260040161047190610ddb565b60405180910390fd5b600081878151811061048f5761048e610fef565b5b6020026020010151905080600001518160200151826040015183606001519550955095509550505092959194509250565b6000600160008373ffffffffffffffffffffffffffffffffffffffff1673ffffffffffffffffffffffffffffffffffffffff168152602001908152602001600020805490509050919050565b60008073ffffffffffffffffffffffffffffffffffffffff166002836040516105359190610d03565b908152602001604051809103902060000160009054906101000a900473ffffffffffffffffffffffffffffffffffffffff1673ffffffffffffffffffffffffffffffffffffffff1614159050919050565b600160003373ffffffffffffffffffffffffffffffffffffffff1673ffffffffffffffffffffffffffffffffffffffff1681526020019081526020016000206040518060800160405280858152602001848152602001348152602001428152509080600181540180825580915050600190039060005260206000209060040201600090919091909150600082015181600001908051906020019061062b929190610958565b506020820151816001019080519060200190610648929190610958565b506040820151816002015560608201518160030155505060405180606001604052803373ffffffffffffffffffffffffffffffffffffffff168152602001348152602001600015158152506002836040516106a39190610d03565b908152602001604051809103902060008201518160000160006101000a81548173ffffffffffffffffffffffffffffffffffffffff021916908373ffffffffffffffffffffffffffffffffffffffff1602179055506020820151816001015560408201518160020160006101000a81548160ff0219169083151502179055509050507fc2a9699e623ff301b2992c4111f4c3d6e02462a5328ac118aab1c35af1be4de73384848460405161075a9493929190610d1a565b60405180910390a1505050565b60008054906101000a900473ffffffffffffffffffffffffffffffffffffffff1673ffffffffffffffffffffffffffffffffffffffff163373ffffffffffffffffffffffffffffffffffffffff16146107f5576040517f08c379a00000000000000000000000000000000000000000000000000000000081526004016107ec90610dfb565b60405180910390fd5b600073ffffffffffffffffffffffffffffffffffffffff1660028260405161081d9190610d03565b908152602001604051809103902060000160009054906101000a900473ffffffffffffffffffffffffffffffffffffffff1673ffffffffffffffffffffffffffffffffffffffff1614156108a6576040517f08c379a000000000000000000000000000000000000000000000000000000000815260040161089d90610e1b565b60405180910390fd5b60006002826040516108b89190610d03565b908152602001604051809103902090508060000160009054906101000a900473ffffffffffffffffffffffffffffffffffffffff1673ffffffffffffffffffffffffffffffffffffffff166108fc82600101549081150290604051600060405180830381858888f19350505050158015610936573d6000803e3d6000fd5b5060018160020160006101000a81548160ff0219169083151502179055505050565b82805461096490610f5d565b90600052602060002090601f01602090048101928261098657600085556109cd565b82601f1061099f57805160ff19168380011785556109cd565b828001600101855582156109cd579182015b828111156109cc5782518255916020019190600101906109b1565b5b5090506109da91906109de565b5090565b5b808211156109f75760008160009055506001016109df565b5090565b6000610a0e610a0984610e7b565b610e56565b905082815260208101848484011115610a2a57610a29611052565b5b610a35848285610f1b565b509392505050565b600081359050610a4c816110ed565b92915050565b600082601f830112610a6757610a6661104d565b5b8135610a778482602086016109fb565b91505092915050565b600081359050610a8f81611104565b92915050565b600060208284031215610aab57610aaa61105c565b5b6000610ab984828501610a3d565b91505092915050565b60008060408385031215610ad957610ad861105c565b5b6000610ae785828601610a3d565b9250506020610af885828601610a80565b9150509250929050565b600060208284031215610b1857610b1761105c565b5b600082013567ffffffffffffffff811115610b3657610b35611057565b5b610b4284828501610a52565b91505092915050565b600080600060608486031215610b6457610b6361105c565b5b600084013567ffffffffffffffff811115610b8257610b81611057565b5b610b8e86828701610a52565b935050602084013567ffffffffffffffff811115610baf57610bae611057565b5b610bbb86828701610a52565b9250506040610bcc86828701610a80565b9150509250925092565b600060208284031215610bec57610beb61105c565b5b6000610bfa84828501610a80565b91505092915050565b610c0c81610ed3565b82525050565b610c1b81610ee5565b82525050565b6000610c2c82610eac565b610c368185610eb7565b9350610c46818560208601610f2a565b610c4f81611061565b840191505092915050565b6000610c6582610eac565b610c6f8185610ec8565b9350610c7f818560208601610f2a565b80840191505092915050565b6000610c98601683610eb7565b9150610ca382611072565b602082019050919050565b6000610cbb601d83610eb7565b9150610cc68261109b565b602082019050919050565b6000610cde601183610eb7565b9150610ce9826110c4565b602082019050919050565b610cfd81610f11565b82525050565b6000610d0f8284610c5a565b915081905092915050565b6000608082019050610d2f6000830187610c03565b8181036020830152610d418186610c21565b90508181036040830152610d558185610c21565b9050610d646060830184610cf4565b95945050505050565b6000602082019050610d826000830184610c12565b92915050565b60006080820190508181036000830152610da28187610c21565b90508181036020830152610db68186610c21565b9050610dc56040830185610cf4565b610dd26060830184610cf4565b95945050505050565b60006020820190508181036000830152610df481610c8b565b9050919050565b60006020820190508181036000830152610e1481610cae565b9050919050565b60006020820190508181036000830152610e3481610cd1565b9050919050565b6000602082019050610e506000830184610cf4565b92915050565b6000610e60610e71565b9050610e6c8282610f8f565b919050565b6000604051905090565b600067ffffffffffffffff821115610e9657610e9561101e565b5b610e9f82611061565b9050602081019050919050565b600081519050919050565b600082825260208201905092915050565b600081905092915050565b6000610ede82610ef1565b9050919050565b60008115159050919050565b600073ffffffffffffffffffffffffffffffffffffffff82169050919050565b6000819050919050565b82818337600083830152505050565b60005b83811015610f48578082015181840152602081019050610f2d565b83811115610f57576000848401525b50505050565b60006002820490506001821680610f7557607f821691505b60208210811415610f8957610f88610fc0565b5b50919050565b610f9882611061565b810181811067ffffffffffffffff82111715610fb757610fb661101e565b5b80604052505050565b7f4e487b7100000000000000000000000000000000000000000000000000000000600052602260045260246000fd5b7f4e487b7100000000000000000000000000000000000000000000000000000000600052603260045260246000fd5b7f4e487b7100000000000000000000000000000000000000000000000000000000600052604160045260246000fd5b600080fd5b600080fd5b600080fd5b600080fd5b6000601f19601f8301169050919050565b7f5061796d656e7420646f6573206e6f7420657869737400000000000000000000600082015250565b7f4f6e6c79206f776e65722063616e2077697468647261772066756e6473000000600082015250565b7f506179206c6f67206e6f7420666f756e64000000000000000000000000000000600082015250565b6110f681610ed3565b811461110157600080fd5b50565b61110d81610f11565b811461111857600080fd5b5056fea2646970667358221220019091d320866efb278664148ea4a9e018cbbd688c2ee4f36fb6517302b6d3da64736f6c63430008070033",
  "immutableReferences": {},
  "source": "// SPDX-License-Identifier: MIT\npragma solidity ^0.8.0;\n\ncontract Payment {\n  //\n  address payable owner;\n\n  struct Trade {\n    string id;\n    string order_no;\n    uint256 amount;\n    uint256 date;\n  }\n\n  struct Pay {\n    address addr;\n    uint256 amount;\n    bool is_refund;\n  }\n\n  //\n  mapping(address => Trade[]) private trades;\n\n  //\n  mapping(string => Pay) private pays;\n\n  //\n  event Notify(address addr, string trade_id, string order_no, uint256 date);\n\n  constructor() {\n    owner = payable(msg.sender);\n  }\n\n  //\n  function pay(\n    string memory id,\n    string memory order_no,\n    uint256 value\n  ) public payable {\n    // require(msg.value == value, 'The trade does not match the value of the transaction');\n    trades[msg.sender].push(Trade({ id: id, order_no: order_no, amount: msg.value, date: block.timestamp }));\n    pays[order_no] = Pay({ addr: msg.sender, is_refund: false, amount: msg.value });\n    emit Notify(msg.sender, id, order_no, value);\n  }\n\n  //\n  function withdraw(uint256 amount) public payable {\n    require(msg.sender == owner, 'Only owner can withdraw funds');\n    owner.transfer(amount);\n  }\n\n  //buyer \n  function tradesOf(address buyer) public view returns (uint256) {\n    return trades[buyer].length;\n  }\n\n  //buyer  index  \n  function tradesOfAt(address buyer, uint256 index)\n    public\n    view\n    returns (\n      string memory,\n      string memory,\n      uint256 amount,\n      uint256 date\n    )\n  {\n    Trade[] memory ts = trades[buyer];\n    require(ts.length > index, 'Payment does not exist');\n    Trade memory trade = ts[index];\n    return (trade.id, trade.order_no, trade.amount, trade.date);\n  }\n\n  //\n  function refund(string memory order_no) public payable {\n    require(msg.sender == owner, 'Only owner can withdraw funds');\n    require(pays[order_no].addr != address(0), 'Pay log not found');\n    Pay storage py = pays[order_no];\n    payable(py.addr).transfer(py.amount);\n    py.is_refund = true;\n  }\n\n  //\n  function checkPay(string memory order_no) public view returns (bool) {\n    return pays[order_no].addr != address(0);\n  }\n}\n",
  "sourcePath": "/Users/q/study/vant/mall-frontend/contracts/Payment.sol",
  "compiler": {
    "name": "solc",
    "version": "0.8.7+commit.e28d00a7.Emscripten.clang"
  },
  "schemaVersion": "3.4.1",
  "updatedAt": "2021-09-15T14:05:14.694Z",
  "devdoc": {
    "kind": "dev",
    "methods": {},
    "version": 1
  },
  "userdoc": {
    "kind": "user",
    "methods": {},
    "version": 1
  }
}