{
  "contractName": "StudyToken",
  "abi": [
    {
      "inputs": [],
      "stateMutability": "nonpayable",
      "type": "constructor"
    },
    {
      "anonymous": false,
      "inputs": [
        {
          "indexed": true,
          "internalType": "address",
          "name": "owner",
          "type": "address"
        },
        {
          "indexed": true,
          "internalType": "address",
          "name": "spender",
          "type": "address"
        },
        {
          "indexed": false,
          "internalType": "uint256",
          "name": "value",
          "type": "uint256"
        }
      ],
      "name": "Approval",
      "type": "event"
    },
    {
      "anonymous": false,
      "inputs": [
        {
          "indexed": true,
          "internalType": "address",
          "name": "from",
          "type": "address"
        },
        {
          "indexed": true,
          "internalType": "address",
          "name": "to",
          "type": "address"
        },
        {
          "indexed": false,
          "internalType": "uint256",
          "name": "value",
          "type": "uint256"
        }
      ],
      "name": "Transfer",
      "type": "event"
    },
    {
      "inputs": [
        {
          "internalType": "address",
          "name": "owner",
          "type": "address"
        },
        {
          "internalType": "address",
          "name": "spender",
          "type": "address"
        }
      ],
      "name": "allowance",
      "outputs": [
        {
          "internalType": "uint256",
          "name": "",
          "type": "uint256"
        }
      ],
      "stateMutability": "view",
      "type": "function"
    },
    {
      "inputs": [
        {
          "internalType": "address",
          "name": "spender",
          "type": "address"
        },
        {
          "internalType": "uint256",
          "name": "amount",
          "type": "uint256"
        }
      ],
      "name": "approve",
      "outputs": [
        {
          "internalType": "bool",
          "name": "",
          "type": "bool"
        }
      ],
      "stateMutability": "nonpayable",
      "type": "function"
    },
    {
      "inputs": [
        {
          "internalType": "address",
          "name": "account",
          "type": "address"
        }
      ],
      "name": "balanceOf",
      "outputs": [
        {
          "internalType": "uint256",
          "name": "",
          "type": "uint256"
        }
      ],
      "stateMutability": "view",
      "type": "function"
    },
    {
      "inputs": [],
      "name": "decimals",
      "outputs": [
        {
          "internalType": "uint8",
          "name": "",
          "type": "uint8"
        }
      ],
      "stateMutability": "view",
      "type": "function"
    },
    {
      "inputs": [
        {
          "internalType": "address",
          "name": "spender",
          "type": "address"
        },
        {
          "internalType": "uint256",
          "name": "subtractedValue",
          "type": "uint256"
        }
      ],
      "name": "decreaseAllowance",
      "outputs": [
        {
          "internalType": "bool",
          "name": "",
          "type": "bool"
        }
      ],
      "stateMutability": "nonpayable",
      "type": "function"
    },
    {
      "inputs": [
        {
          "internalType": "address",
          "name": "spender",
          "type": "address"
        },
        {
          "internalType": "uint256",
          "name": "addedValue",
          "type": "uint256"
        }
      ],
      "name": "increaseAllowance",
      "outputs": [
        {
          "internalType": "bool",
          "name": "",
          "type": "bool"
        }
      ],
      "stateMutability": "nonpayable",
      "type": "function"
    },
    {
      "inputs": [
        {
          "internalType": "address",
          "name": "",
          "type": "address"
        }
      ],
      "name": "minters",
      "outputs": [
        {
          "internalType": "bool",
          "name": "",
          "type": "bool"
        }
      ],
      "stateMutability": "view",
      "type": "function"
    },
    {
      "inputs": [],
      "name": "name",
      "outputs": [
        {
          "internalType": "string",
          "name": "",
          "type": "string"
        }
      ],
      "stateMutability": "view",
      "type": "function"
    },
    {
      "inputs": [],
      "name": "owner",
      "outputs": [
        {
          "internalType": "address",
          "name": "",
          "type": "address"
        }
      ],
      "stateMutability": "view",
      "type": "function"
    },
    {
      "inputs": [],
      "name": "symbol",
      "outputs": [
        {
          "internalType": "string",
          "name": "",
          "type": "string"
        }
      ],
      "stateMutability": "view",
      "type": "function"
    },
    {
      "inputs": [],
      "name": "totalSupply",
      "outputs": [
        {
          "internalType": "uint256",
          "name": "",
          "type": "uint256"
        }
      ],
      "stateMutability": "view",
      "type": "function"
    },
    {
      "inputs": [
        {
          "internalType": "address",
          "name": "recipient",
          "type": "address"
        },
        {
          "internalType": "uint256",
          "name": "amount",
          "type": "uint256"
        }
      ],
      "name": "transfer",
      "outputs": [
        {
          "internalType": "bool",
          "name": "",
          "type": "bool"
        }
      ],
      "stateMutability": "nonpayable",
      "type": "function"
    },
    {
      "inputs": [
        {
          "internalType": "address",
          "name": "sender",
          "type": "address"
        },
        {
          "internalType": "address",
          "name": "recipient",
          "type": "address"
        },
        {
          "internalType": "uint256",
          "name": "amount",
          "type": "uint256"
        }
      ],
      "name": "transferFrom",
      "outputs": [
        {
          "internalType": "bool",
          "name": "",
          "type": "bool"
        }
      ],
      "stateMutability": "nonpayable",
      "type": "function"
    },
    {
      "inputs": [
        {
          "internalType": "address",
          "name": "account",
          "type": "address"
        },
        {
          "internalType": "uint256",
          "name": "amount",
          "type": "uint256"
        }
      ],
      "name": "mint",
      "outputs": [],
      "stateMutability": "nonpayable",
      "type": "function"
    },
    {
      "inputs": [
        {
          "internalType": "address",
          "name": "_owner",
          "type": "address"
        }
      ],
      "name": "setOwner",
      "outputs": [],
      "stateMutability": "nonpayable",
      "type": "function"
    },
    {
      "inputs": [
        {
          "internalType": "address",
          "name": "_minter",
          "type": "address"
        }
      ],
      "name": "addMinter",
      "outputs": [],
      "stateMutability": "nonpayable",
      "type": "function"
    },
    {
      "inputs": [
        {
          "internalType": "address",
          "name": "_minter",
          "type": "address"
        }
      ],
      "name": "removeMinter",
      "outputs": [],
      "stateMutability": "nonpayable",
      "type": "function"
    }
  ],
  "bytecode": "0x60806040523480156200001157600080fd5b506040518060400160405280601281526020017f5374756479546f6b656e2e66696e616e636500000000000000000000000000008152506040518060400160405280600381526020017f5354440000000000000000000000000000000000000000000000000000000000815250601282600390805190602001906200009892919062000117565b508160049080519060200190620000b192919062000117565b5080600560006101000a81548160ff021916908360ff16021790555050505033600560016101000a81548173ffffffffffffffffffffffffffffffffffffffff021916908373ffffffffffffffffffffffffffffffffffffffff1602179055506200022c565b8280546200012590620001c7565b90600052602060002090601f01602090048101928262000149576000855562000195565b82601f106200016457805160ff191683800117855562000195565b8280016001018555821562000195579182015b828111156200019457825182559160200191906001019062000177565b5b509050620001a49190620001a8565b5090565b5b80821115620001c3576000816000905550600101620001a9565b5090565b60006002820490506001821680620001e057607f821691505b60208210811415620001f757620001f6620001fd565b5b50919050565b7f4e487b7100000000000000000000000000000000000000000000000000000000600052602260045260246000fd5b611b30806200023c6000396000f3fe608060405234801561001057600080fd5b506004361061010b5760003560e01c806340c10f19116100a2578063983b2d5611610071578063983b2d56146102ba578063a457c2d7146102d6578063a9059cbb14610306578063dd62ed3e14610336578063f46eccc4146103665761010b565b806340c10f191461023257806370a082311461024e5780638da5cb5b1461027e57806395d89b411461029c5761010b565b806323b872dd116100de57806323b872dd146101985780633092afd5146101c8578063313ce567146101e457806339509351146102025761010b565b806306fdde0314610110578063095ea7b31461012e57806313af40351461015e57806318160ddd1461017a575b600080fd5b610118610396565b60405161012591906114f0565b60405180910390f35b610148600480360381019061014391906112a7565b610428565b60405161015591906114d5565b60405180910390f35b610178600480360381019061017391906111e7565b610446565b005b61018261051a565b60405161018f9190611652565b60405180910390f35b6101b260048036038101906101ad9190611254565b610524565b6040516101bf91906114d5565b60405180910390f35b6101e260048036038101906101dd91906111e7565b61061c565b005b6101ec610707565b6040516101f9919061166d565b60405180910390f35b61021c600480360381019061021791906112a7565b61071e565b60405161022991906114d5565b60405180910390f35b61024c600480360381019061024791906112a7565b6107ca565b005b610268600480360381019061026391906111e7565b610864565b6040516102759190611652565b60405180910390f35b6102866108ac565b60405161029391906114ba565b60405180910390f35b6102a46108d2565b6040516102b191906114f0565b60405180910390f35b6102d460048036038101906102cf91906111e7565b610964565b005b6102f060048036038101906102eb91906112a7565b610a4f565b6040516102fd91906114d5565b60405180910390f35b610320600480360381019061031b91906112a7565b610b3a565b60405161032d91906114d5565b60405180910390f35b610350600480360381019061034b9190611214565b610b58565b60405161035d9190611652565b60405180910390f35b610380600480360381019061037b91906111e7565b610bdf565b60405161038d91906114d5565b60405180910390f35b6060600380546103a590611782565b80601f01602080910402602001604051908101604052809291908181526020018280546103d190611782565b801561041e5780601f106103f35761010080835404028352916020019161041e565b820191906000526020600020905b81548152906001019060200180831161040157829003601f168201915b5050505050905090565b600061043c610435610bff565b8484610c07565b6001905092915050565b600560019054906101000a900473ffffffffffffffffffffffffffffffffffffffff1673ffffffffffffffffffffffffffffffffffffffff163373ffffffffffffffffffffffffffffffffffffffff16146104d6576040517f08c379a00000000000000000000000000000000000000000000000000000000081526004016104cd90611612565b60405180910390fd5b80600560016101000a81548173ffffffffffffffffffffffffffffffffffffffff021916908373ffffffffffffffffffffffffffffffffffffffff16021790555050565b6000600254905090565b6000610531848484610dd2565b6000600160008673ffffffffffffffffffffffffffffffffffffffff1673ffffffffffffffffffffffffffffffffffffffff168152602001908152602001600020600061057c610bff565b73ffffffffffffffffffffffffffffffffffffffff1673ffffffffffffffffffffffffffffffffffffffff168152602001908152602001600020549050828110156105fc576040517f08c379a00000000000000000000000000000000000000000000000000000000081526004016105f390611592565b60405180910390fd5b61061085610608610bff565b858403610c07565b60019150509392505050565b600560019054906101000a900473ffffffffffffffffffffffffffffffffffffffff1673ffffffffffffffffffffffffffffffffffffffff163373ffffffffffffffffffffffffffffffffffffffff16146106ac576040517f08c379a00000000000000000000000000000000000000000000000000000000081526004016106a390611612565b60405180910390fd5b6000600660008373ffffffffffffffffffffffffffffffffffffffff1673ffffffffffffffffffffffffffffffffffffffff16815260200190815260200160002060006101000a81548160ff02191690831515021790555050565b6000600560009054906101000a900460ff16905090565b60006107c061072b610bff565b848460016000610739610bff565b73ffffffffffffffffffffffffffffffffffffffff1673ffffffffffffffffffffffffffffffffffffffff16815260200190815260200160002060008873ffffffffffffffffffffffffffffffffffffffff1673ffffffffffffffffffffffffffffffffffffffff168152602001908152602001600020546107bb91906116a4565b610c07565b6001905092915050565b600660003373ffffffffffffffffffffffffffffffffffffffff1673ffffffffffffffffffffffffffffffffffffffff16815260200190815260200160002060009054906101000a900460ff16610856576040517f08c379a000000000000000000000000000000000000000000000000000000000815260040161084d90611512565b60405180910390fd5b6108608282611053565b5050565b60008060008373ffffffffffffffffffffffffffffffffffffffff1673ffffffffffffffffffffffffffffffffffffffff168152602001908152602001600020549050919050565b600560019054906101000a900473ffffffffffffffffffffffffffffffffffffffff1681565b6060600480546108e190611782565b80601f016020809104026020016040519081016040528092919081815260200182805461090d90611782565b801561095a5780601f1061092f5761010080835404028352916020019161095a565b820191906000526020600020905b81548152906001019060200180831161093d57829003601f168201915b5050505050905090565b600560019054906101000a900473ffffffffffffffffffffffffffffffffffffffff1673ffffffffffffffffffffffffffffffffffffffff163373ffffffffffffffffffffffffffffffffffffffff16146109f4576040517f08c379a00000000000000000000000000000000000000000000000000000000081526004016109eb90611612565b60405180910390fd5b6001600660008373ffffffffffffffffffffffffffffffffffffffff1673ffffffffffffffffffffffffffffffffffffffff16815260200190815260200160002060006101000a81548160ff02191690831515021790555050565b60008060016000610a5e610bff565b73ffffffffffffffffffffffffffffffffffffffff1673ffffffffffffffffffffffffffffffffffffffff16815260200190815260200160002060008573ffffffffffffffffffffffffffffffffffffffff1673ffffffffffffffffffffffffffffffffffffffff16815260200190815260200160002054905082811015610b1b576040517f08c379a0000000000000000000000000000000000000000000000000000000008152600401610b12906115f2565b60405180910390fd5b610b2f610b26610bff565b85858403610c07565b600191505092915050565b6000610b4e610b47610bff565b8484610dd2565b6001905092915050565b6000600160008473ffffffffffffffffffffffffffffffffffffffff1673ffffffffffffffffffffffffffffffffffffffff16815260200190815260200160002060008373ffffffffffffffffffffffffffffffffffffffff1673ffffffffffffffffffffffffffffffffffffffff16815260200190815260200160002054905092915050565b60066020528060005260406000206000915054906101000a900460ff1681565b600033905090565b600073ffffffffffffffffffffffffffffffffffffffff168373ffffffffffffffffffffffffffffffffffffffff161415610c77576040517f08c379a0000000000000000000000000000000000000000000000000000000008152600401610c6e906115d2565b60405180910390fd5b600073ffffffffffffffffffffffffffffffffffffffff168273ffffffffffffffffffffffffffffffffffffffff161415610ce7576040517f08c379a0000000000000000000000000000000000000000000000000000000008152600401610cde90611552565b60405180910390fd5b80600160008573ffffffffffffffffffffffffffffffffffffffff1673ffffffffffffffffffffffffffffffffffffffff16815260200190815260200160002060008473ffffffffffffffffffffffffffffffffffffffff1673ffffffffffffffffffffffffffffffffffffffff168152602001908152602001600020819055508173ffffffffffffffffffffffffffffffffffffffff168373ffffffffffffffffffffffffffffffffffffffff167f8c5be1e5ebec7d5bd14f71427d1e84f3dd0314c0f7b2291e5b200ac8c7c3b92583604051610dc59190611652565b60405180910390a3505050565b600073ffffffffffffffffffffffffffffffffffffffff168373ffffffffffffffffffffffffffffffffffffffff161415610e42576040517f08c379a0000000000000000000000000000000000000000000000000000000008152600401610e39906115b2565b60405180910390fd5b600073ffffffffffffffffffffffffffffffffffffffff168273ffffffffffffffffffffffffffffffffffffffff161415610eb2576040517f08c379a0000000000000000000000000000000000000000000000000000000008152600401610ea990611532565b60405180910390fd5b610ebd8383836111b3565b60008060008573ffffffffffffffffffffffffffffffffffffffff1673ffffffffffffffffffffffffffffffffffffffff16815260200190815260200160002054905081811015610f43576040517f08c379a0000000000000000000000000000000000000000000000000000000008152600401610f3a90611572565b60405180910390fd5b8181036000808673ffffffffffffffffffffffffffffffffffffffff1673ffffffffffffffffffffffffffffffffffffffff16815260200190815260200160002081905550816000808573ffffffffffffffffffffffffffffffffffffffff1673ffffffffffffffffffffffffffffffffffffffff1681526020019081526020016000206000828254610fd691906116a4565b925050819055508273ffffffffffffffffffffffffffffffffffffffff168473ffffffffffffffffffffffffffffffffffffffff167fddf252ad1be2c89b69c2b068fc378daa952ba7f163c4a11628f55a4df523b3ef8460405161103a9190611652565b60405180910390a361104d8484846111b8565b50505050565b600073ffffffffffffffffffffffffffffffffffffffff168273ffffffffffffffffffffffffffffffffffffffff1614156110c3576040517f08c379a00000000000000000000000000000000000000000000000000000000081526004016110ba90611632565b60405180910390fd5b6110cf600083836111b3565b80600260008282546110e191906116a4565b92505081905550806000808473ffffffffffffffffffffffffffffffffffffffff1673ffffffffffffffffffffffffffffffffffffffff168152602001908152602001600020600082825461113691906116a4565b925050819055508173ffffffffffffffffffffffffffffffffffffffff16600073ffffffffffffffffffffffffffffffffffffffff167fddf252ad1be2c89b69c2b068fc378daa952ba7f163c4a11628f55a4df523b3ef8360405161119b9190611652565b60405180910390a36111af600083836111b8565b5050565b505050565b505050565b6000813590506111cc81611acc565b92915050565b6000813590506111e181611ae3565b92915050565b6000602082840312156111fd576111fc611812565b5b600061120b848285016111bd565b91505092915050565b6000806040838503121561122b5761122a611812565b5b6000611239858286016111bd565b925050602061124a858286016111bd565b9150509250929050565b60008060006060848603121561126d5761126c611812565b5b600061127b868287016111bd565b935050602061128c868287016111bd565b925050604061129d868287016111d2565b9150509250925092565b600080604083850312156112be576112bd611812565b5b60006112cc858286016111bd565b92505060206112dd858286016111d2565b9150509250929050565b6112f0816116fa565b82525050565b6112ff8161170c565b82525050565b600061131082611688565b61131a8185611693565b935061132a81856020860161174f565b61133381611817565b840191505092915050565b600061134b600783611693565b915061135682611828565b602082019050919050565b600061136e602383611693565b915061137982611851565b604082019050919050565b6000611391602283611693565b915061139c826118a0565b604082019050919050565b60006113b4602683611693565b91506113bf826118ef565b604082019050919050565b60006113d7602883611693565b91506113e28261193e565b604082019050919050565b60006113fa602583611693565b91506114058261198d565b604082019050919050565b600061141d602483611693565b9150611428826119dc565b604082019050919050565b6000611440602583611693565b915061144b82611a2b565b604082019050919050565b6000611463600683611693565b915061146e82611a7a565b602082019050919050565b6000611486601f83611693565b915061149182611aa3565b602082019050919050565b6114a581611738565b82525050565b6114b481611742565b82525050565b60006020820190506114cf60008301846112e7565b92915050565b60006020820190506114ea60008301846112f6565b92915050565b6000602082019050818103600083015261150a8184611305565b905092915050565b6000602082019050818103600083015261152b8161133e565b9050919050565b6000602082019050818103600083015261154b81611361565b9050919050565b6000602082019050818103600083015261156b81611384565b9050919050565b6000602082019050818103600083015261158b816113a7565b9050919050565b600060208201905081810360008301526115ab816113ca565b9050919050565b600060208201905081810360008301526115cb816113ed565b9050919050565b600060208201905081810360008301526115eb81611410565b9050919050565b6000602082019050818103600083015261160b81611433565b9050919050565b6000602082019050818103600083015261162b81611456565b9050919050565b6000602082019050818103600083015261164b81611479565b9050919050565b6000602082019050611667600083018461149c565b92915050565b600060208201905061168260008301846114ab565b92915050565b600081519050919050565b600082825260208201905092915050565b60006116af82611738565b91506116ba83611738565b9250827fffffffffffffffffffffffffffffffffffffffffffffffffffffffffffffffff038211156116ef576116ee6117b4565b5b828201905092915050565b600061170582611718565b9050919050565b60008115159050919050565b600073ffffffffffffffffffffffffffffffffffffffff82169050919050565b6000819050919050565b600060ff82169050919050565b60005b8381101561176d578082015181840152602081019050611752565b8381111561177c576000848401525b50505050565b6000600282049050600182168061179a57607f821691505b602082108114156117ae576117ad6117e3565b5b50919050565b7f4e487b7100000000000000000000000000000000000000000000000000000000600052601160045260246000fd5b7f4e487b7100000000000000000000000000000000000000000000000000000000600052602260045260246000fd5b600080fd5b6000601f19601f8301169050919050565b7f216d696e74657200000000000000000000000000000000000000000000000000600082015250565b7f45524332303a207472616e7366657220746f20746865207a65726f206164647260008201527f6573730000000000000000000000000000000000000000000000000000000000602082015250565b7f45524332303a20617070726f766520746f20746865207a65726f20616464726560008201527f7373000000000000000000000000000000000000000000000000000000000000602082015250565b7f45524332303a207472616e7366657220616d6f756e742065786365656473206260008201527f616c616e63650000000000000000000000000000000000000000000000000000602082015250565b7f45524332303a207472616e7366657220616d6f756e742065786365656473206160008201527f6c6c6f77616e6365000000000000000000000000000000000000000000000000602082015250565b7f45524332303a207472616e736665722066726f6d20746865207a65726f20616460008201527f6472657373000000000000000000000000000000000000000000000000000000602082015250565b7f45524332303a20617070726f76652066726f6d20746865207a65726f2061646460008201527f7265737300000000000000000000000000000000000000000000000000000000602082015250565b7f45524332303a2064656372656173656420616c6c6f77616e63652062656c6f7760008201527f207a65726f000000000000000000000000000000000000000000000000000000602082015250565b7f216f776e65720000000000000000000000000000000000000000000000000000600082015250565b7f45524332303a206d696e7420746f20746865207a65726f206164647265737300600082015250565b611ad5816116fa565b8114611ae057600080fd5b50565b611aec81611738565b8114611af757600080fd5b5056fea2646970667358221220e7d0ed50daadd8c470a77eba21a9b98b942ef281eaad7ab1ea090f7c68bafb3364736f6c63430008070033",
  "immutableReferences": {},
  "source": "// SPDX-License-Identifier: MIT\npragma solidity ^0.8.0;\n\n// https://github.com/OpenZeppelin/openzeppelin-contracts/blob/v3.0.0/contracts/token/ERC20/IERC20.sol\ninterface IERC20 {\n  //ERC20My test token\n  function name() external view returns (string memory);\n\n  //MTT\n  function symbol() external view returns (string memory);\n\n  //token30.001\n  function decimals() external view returns (uint8);\n\n  //\n  function totalSupply() external view returns (uint256);\n\n  //()\n  function balanceOf(address account) external view returns (uint256);\n\n  //_valuetoken_toTransfer\n  function transfer(address _to, uint256 _value) external returns (bool);\n\n  //spenderowner\n  function allowance(address owner, address spender) external view returns (uint256);\n\n  //spenderamount amount\n  function approve(address spender, uint256 amount) external returns (bool);\n\n  //_from_valuetoken_to,TransfertransferFromtokenfromapprove\n  function transferFrom(\n    address _from,\n    address _to,\n    uint256 _value\n  ) external returns (bool);\n\n  event Transfer(address indexed from, address indexed to, uint256 value);\n  event Approval(address indexed owner, address indexed spender, uint256 value);\n}\n\nabstract contract Context {\n  function _msgSender() internal view virtual returns (address) {\n    return msg.sender;\n  }\n\n  function _msgData() internal view virtual returns (bytes calldata) {\n    return msg.data;\n  }\n}\n\ncontract ERC20 is Context, IERC20 {\n  mapping(address => uint256) private _balances;\n\n  mapping(address => mapping(address => uint256)) private _allowances;\n\n  uint256 private _totalSupply;\n\n  string private _name;\n\n  string private _symbol;\n\n  uint8 private _decimals;\n\n  constructor(\n    string memory name_,\n    string memory symbol_,\n    uint8 decimals_\n  ) {\n    _name = name_;\n    _symbol = symbol_;\n    _decimals = decimals_;\n  }\n\n  function name() public view virtual override returns (string memory) {\n    return _name;\n  }\n\n  function symbol() public view virtual override returns (string memory) {\n    return _symbol;\n  }\n\n  function decimals() public view virtual override returns (uint8) {\n    return _decimals;\n  }\n\n  function totalSupply() public view virtual override returns (uint256) {\n    return _totalSupply;\n  }\n\n  function balanceOf(address account) public view virtual override returns (uint256) {\n    return _balances[account];\n  }\n\n  function transfer(address recipient, uint256 amount) public virtual override returns (bool) {\n    _transfer(_msgSender(), recipient, amount);\n    return true;\n  }\n\n  function allowance(address owner, address spender) public view virtual override returns (uint256) {\n    return _allowances[owner][spender];\n  }\n\n  function approve(address spender, uint256 amount) public virtual override returns (bool) {\n    _approve(_msgSender(), spender, amount);\n    return true;\n  }\n\n  function transferFrom(\n    address sender,\n    address recipient,\n    uint256 amount\n  ) public virtual override returns (bool) {\n    _transfer(sender, recipient, amount);\n\n    uint256 currentAllowance = _allowances[sender][_msgSender()];\n    require(currentAllowance >= amount, 'ERC20: transfer amount exceeds allowance');\n    unchecked {\n      _approve(sender, _msgSender(), currentAllowance - amount);\n    }\n\n    return true;\n  }\n\n  function increaseAllowance(address spender, uint256 addedValue) public virtual returns (bool) {\n    _approve(_msgSender(), spender, _allowances[_msgSender()][spender] + addedValue);\n    return true;\n  }\n\n  function decreaseAllowance(address spender, uint256 subtractedValue) public virtual returns (bool) {\n    uint256 currentAllowance = _allowances[_msgSender()][spender];\n    require(currentAllowance >= subtractedValue, 'ERC20: decreased allowance below zero');\n    unchecked {\n      _approve(_msgSender(), spender, currentAllowance - subtractedValue);\n    }\n\n    return true;\n  }\n\n  function _transfer(\n    address sender,\n    address recipient,\n    uint256 amount\n  ) internal virtual {\n    require(sender != address(0), 'ERC20: transfer from the zero address');\n    require(recipient != address(0), 'ERC20: transfer to the zero address');\n\n    _beforeTokenTransfer(sender, recipient, amount);\n\n    uint256 senderBalance = _balances[sender];\n    require(senderBalance >= amount, 'ERC20: transfer amount exceeds balance');\n    unchecked {\n      _balances[sender] = senderBalance - amount;\n    }\n    _balances[recipient] += amount;\n\n    emit Transfer(sender, recipient, amount);\n\n    _afterTokenTransfer(sender, recipient, amount);\n  }\n\n  function _mint(address account, uint256 amount) internal virtual {\n    require(account != address(0), 'ERC20: mint to the zero address');\n\n    _beforeTokenTransfer(address(0), account, amount);\n\n    _totalSupply += amount;\n    _balances[account] += amount;\n    emit Transfer(address(0), account, amount);\n\n    _afterTokenTransfer(address(0), account, amount);\n  }\n\n  function _burn(address account, uint256 amount) internal virtual {\n    require(account != address(0), 'ERC20: burn from the zero address');\n\n    _beforeTokenTransfer(account, address(0), amount);\n\n    uint256 accountBalance = _balances[account];\n    require(accountBalance >= amount, 'ERC20: burn amount exceeds balance');\n    unchecked {\n      _balances[account] = accountBalance - amount;\n    }\n    _totalSupply -= amount;\n\n    emit Transfer(account, address(0), amount);\n\n    _afterTokenTransfer(account, address(0), amount);\n  }\n\n  function _approve(\n    address owner,\n    address spender,\n    uint256 amount\n  ) internal virtual {\n    require(owner != address(0), 'ERC20: approve from the zero address');\n    require(spender != address(0), 'ERC20: approve to the zero address');\n\n    _allowances[owner][spender] = amount;\n    emit Approval(owner, spender, amount);\n  }\n\n  function _beforeTokenTransfer(\n    address from,\n    address to,\n    uint256 amount\n  ) internal virtual {}\n\n  function _afterTokenTransfer(\n    address from,\n    address to,\n    uint256 amount\n  ) internal virtual {}\n}\n\n/**\n * @dev token\n */\ncontract StudyToken is ERC20 {\n  // \n  address public owner;\n\n  // \n  mapping(address => bool) public minters;\n\n  // \n  constructor() ERC20('StudyToken.finance', 'STD', 18) {\n    owner = msg.sender;\n  }\n\n  /**\n   * \n   * \n   */\n  function mint(address account, uint256 amount) public {\n    require(minters[msg.sender], '!minter');\n    _mint(account, amount);\n  }\n\n  /**\n   * \n   */\n  function setOwner(address _owner) public {\n    // \n    require(msg.sender == owner, '!owner');\n    // owner\n    owner = _owner;\n  }\n\n  /**\n   * \n   */\n  function addMinter(address _minter) public {\n    // \n    require(msg.sender == owner, '!owner');\n    // _mintertrue\n    minters[_minter] = true;\n  }\n\n  /**\n   * \n   */\n  function removeMinter(address _minter) public {\n    // \n    require(msg.sender == owner, '!owner');\n    // _minterfalse\n    minters[_minter] = false;\n  }\n}\n",
  "sourcePath": "/Users/q/study/vant/mall-frontend/contracts/StudyToken.sol",
  "compiler": {
    "name": "solc",
    "version": "0.8.7+commit.e28d00a7.Emscripten.clang"
  },
  "schemaVersion": "3.4.1",
  "updatedAt": "2021-09-15T14:05:14.759Z",
  "devdoc": {
    "details": "token",
    "kind": "dev",
    "methods": {},
    "version": 1
  },
  "userdoc": {
    "kind": "user",
    "methods": {
      "addMinter(address)": {
        "notice": ""
      },
      "mint(address,uint256)": {
        "notice": " "
      },
      "removeMinter(address)": {
        "notice": ""
      },
      "setOwner(address)": {
        "notice": ""
      }
    },
    "version": 1
  }
}